:100000000C945D000C9485000C9485000C94850084
:100010000C9485000C9485000C9485000C9485004C
:100020000C9485000C9485000C9485000C9485003C
:100030000C9485000C9485000C9485000C9485002C
:100040000C9432070C9485000C9400070C94DA068B
:100050000C9485000C9485000C9485000C9485000C
:100060000C947C070C94850000000008000201003D
:100070000003040700000000000000000000000072
:10008000250028002B0000000000240027002A0083
:10009000040404040404040402020202020203032E
:1000A0000303030301020408102040800102040836
:1000B00010200102040810209B0811241FBECFEF5E
:1000C000D8E0DEBFCDBF11E0A0E0B1E0EAEAFEE19A
:1000D00002C005900D92A233B107D9F722E0A2E346
:1000E000B1E001C01D92AA3BB207E1F710E0CDE5F7
:1000F000D0E004C02197FE010E94240FCC35D10727
:10010000C9F70E9456090C94530F0C940000982FC5
:100110002091EE0181E0213208F043C08091CA01B4
:100120008111FCCF8091ED0132E03093CA019093B0
:10013000C9019FEF9093C8011092C7012093C60197
:10014000ADECB1E0E6EAF1E090E0291331C01092A5
:10015000A5019091A501880F892B8093A50180911D
:10016000A401813049F51092A4018091A5018093EA
:10017000BB008091BC0083FDF8CF85EC8093BC0070
:100180008091CA018230E1F38091C8018F3FB1F0C4
:100190008091C8018032A1F08091C801803391F034
:1001A00084E01092CC011092EE011092CB010895E0
:1001B0003D9131939F5FC9CF85EEE0CF80E0F1CFD5
:1001C00082E0EFCF83E0EDCF08950895AF92BF9224
:1001D000CF92DF92EF92FF920F931F93CF93DF9313
:1001E0006C017B018B01040F151FEB015E01AE1842
:1001F000BF08C017D10759F06991D601ED91FC9164
:100200000190F081E02DC6010995892B79F7C50190
:10021000DF91CF911F910F91FF90EF90DF90CF90E2
:10022000BF90AF900895FC01538D448D252F30E091
:10023000842F90E0821B930B541710F0CF960895F3
:1002400001970895FC01918D828D981761F0A28D20
:10025000AE0FBF2FB11D5D968C91928D9F5F9F73E6
:10026000928F90E008958FEF9FEF0895FC01918D9C
:10027000828D981731F0828DE80FF11D858D90E009
:1002800008958FEF9FEF0895FC01918D228D892FA6
:1002900090E0805C9F4F821B91098F73992708958E
:1002A0008FEE91E00E94440121E0892B09F420E0C7
:1002B000822F089580E090E0892B29F00E94500160
:1002C00081110C9400000895FC01A48DA80FB92F92
:1002D000B11DA35ABF4F2C91848D90E001968F736E
:1002E0009927848FA689B7892C93A089B1898C918D
:1002F000837080648C93938D848D981306C00288DC
:10030000F389E02D80818F7D80830895EF92FF92A5
:100310000F931F93CF93DF93EC0181E0888F9B8D28
:100320008C8D98131AC0E889F989808185FF15C0E2
:100330009FB7F894EE89FF896083E889F989808105
:100340008370806480839FBF81E090E0DF91CF91D4
:100350001F910F91FF90EF900895F62E0B8D10E0F6
:100360000F5F1F4F0F731127E02E8C8D8E110CC065
:100370000FB607FCFACFE889F989808185FFF5CFB0
:10038000CE010E946401F1CFEB8DEC0FFD2FF11D2A
:10039000E35AFF4FF0829FB7F8940B8FEA89FB89ED
:1003A00080818062CFCFCF93DF93EC01888D88234B
:1003B000B9F0AA89BB89E889F9898C9185FD03C0C8
:1003C000808186FD0DC00FB607FCF7CF8C9185FFAD
:1003D000F2CF808185FFEDCFCE010E946401E9CF8D
:1003E000DF91CF91089590E0FC01E859FF4F2491EF
:1003F000FC01EC55FF4F3491FC01E057FF4FE491B5
:10040000EE23C9F0222339F0233001F1A8F4213082
:1004100019F1223029F1F0E0EE0FFF1FE458FF4FF1
:10042000A591B4918FB7F894EC91611126C03095E5
:100430003E233C938FBF08952730A9F02830C9F0A0
:10044000243049F7809180008F7D03C08091800027
:100450008F7780938000DFCF84B58F7784BDDBCF2B
:1004600084B58F7DFBCF8091B0008F778093B000F3
:10047000D2CF8091B0008F7DF9CF3E2BDACFCF92D3
:10048000DF92EF92FF920F931F93CF93DF93CDB73D
:10049000DEB728970FB6F894DEBF0FBECDBF883009
:1004A000910508F086C0FC01E85AFD4F0C94240F1A
:1004B000600267027002750280028702C702D002E2
:1004C00081E090E09A8389831C821B8206C081E0D0
:1004D00090E09A8389839C838B831E821D820DC04A
:1004E0001A82198281E090E0F6CF1A82198281E0A7
:1004F00090E09C838B839E838D8318861F8211C01E
:100500001A8219821C821B8281E090E0F4CF1A8249
:1005100019821C821B8281E090E09E838D839887E4
:100520008F838E010F5F1F4F38E9E32E32E0F32EE9
:100530006E0189E0C80ED11CF80160810E5F1F4F6B
:10054000F7018081F2E0EF0EF11C0E94F301C0166A
:10055000D10691F78091A4029091A5028230910575
:1005600038F0880F991F880F991F05970197F1F7A9
:1005700028960FB6F894DEBF0FBECDBFDF91CF91A6
:100580001F910F91FF90EF90DF90CF9008951A8206
:1005900019821C821B821E821D8281E090E0BFCFE7
:1005A00081E090E09A8389831C821B821E821D82D7
:1005B000B6CF1A82198288CF8091A6029091A702A5
:1005C0000196883091050CF59093A7028093A602BE
:1005D0008091A6029091A7020E943F028091A00202
:1005E0009091A10201969093A1028093A002209184
:1005F000A2023091A3028217930734F0821B930B5F
:100600009093A1028093A00208951092A7021092E5
:10061000A602DECF3FB7F89480917A0190917B01DA
:10062000A0917C01B0917D0126B5A89B05C02F3F0C
:1006300019F00196A11DB11D3FBFBA2FA92F982F08
:100640008827BC01CD01620F711D811D911D42E003
:10065000660F771F881F991F4A95D1F708958F92CB
:100660009F92AF92BF92CF92DF92EF92FF920E9441
:100670000A034B015C0184E6C82ED12CE12CF12C3D
:100680000E940A03681979098A099B09683E734028
:1006900081059105A8F321E0C21AD108E108F1080B
:1006A00088EE880E83E0981EA11CB11CC114D104F1
:1006B000E104F10429F7FF90EF90DF90CF90BF9015
:1006C000AF909F908F9008952FB7F8946091760126
:1006D0007091770180917801909179012FBF0895F1
:1006E00085ED8093BC008091BC0084FDFCCF10920E
:1006F000CA01089520915201260F3327331F21325A
:100700003105ECF42091CA01FC0190E080E0243036
:1007100069F082E00895A09152012191AC014E5CF4
:100720005E4FA40FB52FB11D2C930196861798F339
:1007300080915201680F6093520180E0089581E03A
:1007400008950895E091830180918201E81730F4C3
:10075000F0E0EC57FE4F808190E008958FEF9FEF1F
:10076000089590918301809182012FEF3FEF9817B8
:1007700048F4E92FF0E0EC57FE4F208130E09F5F16
:1007800090938301C9010895809182019091830122
:10079000891B990B0895CF92DF92EF92FF920F93EE
:1007A0001F93CF93DF937C01CB018A012091CB0172
:1007B000222389F0EB016B01C40ED51ECC15DD059B
:1007C00069F06991D701ED91FC910190F081E02DE4
:1007D000C7010995F3CF642F0E947A03C801DF9106
:1007E000CF911F910F91FF90EF90DF90CF900895E0
:1007F000CF93DF931F92CDB7DEB769832091CB01F2
:100800002223F9F02091EE01203258F021E030E06F
:10081000FC013383228390E080E00F90DF91CF9141
:1008200008958091CC01E82FF0E0E353FE4F9981C9
:1008300090838F5F8093CC018093EE0181E090E004
:10084000ECCF61E0CE0101960E947A03F7CF1F93AF
:10085000CF93DF93162FCEEAD2E0998121E0209347
:10086000CB019093ED011092CC011092EE01682F14
:100870008CE892E00E94F803612F8CE892E00E94DD
:10088000F80381E00E9487008883DF91CF911F9158
:1008900008950F931F93CF93DF93162F072FCEEA60
:1008A000D2E0998121E02093CB019093ED01109249
:1008B000CC011092EE01682F8CE892E00E94F803C0
:1008C000602F8CE892E00E94F803612F8CE892E0A0
:1008D0000E94F80381E00E9487008883DF91CF9116
:1008E0001F910F91089590E080E008959091CA01C2
:1008F0009111FCCF91E09093CA019093C9012FEF21
:100900002093C8011092C701260F2093C60190932F
:10091000A5019091A501880F892B8093A501809155
:10092000A401813019F51092A4018091A501809352
:10093000BB008091BC0083FDF8CF85EC8093BC00A8
:100940008091CA018130E1F38091C701861710F4CC
:100950006091C701A6EAB1E0E4E8F1E080E0861327
:1009600007C01092830180938201089585EEE6CF3F
:100970009D9191938F5FF3CFCF93DF93CEEAD2E037
:10098000998121E02093CB019093ED011092CC014D
:100990001092EE01682F8CE892E00E94F80381E04B
:1009A0000E948700888362E089810E9476048CE837
:1009B00092E00E94B103D82F80E0C82F8CE892E02B
:1009C0000E94B1038C2B9D2BDF91CF910895CF9383
:1009D000DF93CEEAD2E0998121E02093CB0190937E
:1009E000ED011092CC011092EE01682F8CE892E09C
:1009F0000E94F80381E00E948700888361E089817A
:100A00000E9476048CE892E00E94B103DF91CF91BE
:100A10000895682F616080E00E9427040E946403AB
:100A20007093B4026093B30283E10E94E70487707D
:100A3000B9F48091B0029091B102892BA9F30E9480
:100A400064032091B3023091B402621B730B809156
:100A5000B0029091B1028617970730F780E00895B1
:100A600061E08BE00E94270460E080E00E942704A0
:100A700081E00895CF93DF93EC0181E00E94E704C9
:100A800084FB992790F9988383FB992790F99A839F
:100A900082FB992790F9998386FB992790F99B838C
:100AA000881F8827881F8C83DF91CF9108952F920C
:100AB0003F924F925F926F927F928F929F92AF92EE
:100AC000BF92CF92DF92EF92FF920F931F93CF933B
:100AD000DF9300D000D000D0CDB7DEB71C017E83FD
:100AE0006D8380E50E94E7048F5F880F90E0ED81C1
:100AF000FE819183808386E40E94E704682E712C36
:100B0000FFEF6F1A7F0AED81FE8175826482A081FA
:100B1000B0E020E03FE24AE350E00E94310F4B0199
:100B20005C01F4EF8F0EF1E09F1EA11CB11C98EE4A
:100B3000C92E93E0D92EE12CF12CC501B401A701F7
:100B400096010E94020FD3010E943C0F69837A83B1
:100B50008B839C8320ED422E27E0522E612C712C3A
:100B6000C501B401A30192010E94020F69817A813B
:100B70008B819C81620F731F841F951FA7019601B3
:100B80000E94020FED81FE812287338744875587BB
:100B900081E50E94BC048C01112702C0000F111FC7
:100BA0009A95E2F70F5F1F4FED81FE811783068351
:100BB000A081B0E020E03FE24AE350E00E94310F24
:100BC0004B015C01F4EF8F0EF1E09F1EA11CB11CE4
:100BD000C501B401A70196010E94020FD8010E942D
:100BE000310F69837A838B839C83C501B401A30190
:100BF00092010E94020F69817A818B819C81620F30
:100C0000731F841F951FA70196010E94020FED819B
:100C1000FE8126873787408B518B80E70E94E7044F
:100C20008F5F880F90E0ED81FE819383828381E75F
:100C30000E94BC049C01992702C0880F991F3A9515
:100C4000E2F70196ED81FE8191878087F101238192
:100C5000222341F0ED81FE8126813781821B930B97
:100C600091878087ED81FE81A281B0E020E03FE2A4
:100C70004AE350E00E94310F6B017C01F4EFCF0E8C
:100C8000F1E0DF1EE11CF11C88EE482E83E0582EB7
:100C9000612C712CC701B601A30192010E94020FC1
:100CA000ED81FE81A085B1850E94310F4B015C0171
:100CB000C701B60120ED37E040E050E00E94020F8E
:100CC000C501B401620F731F841F951FA301920118
:100CD0000E94020FED81FE81228B338B448B558B5A
:100CE00026960FB6F894DEBF0FBECDBFDF91CF9131
:100CF0001F910F91FF90EF90DF90CF90BF90AF903A
:100D00009F908F907F906F905F904F903F902F902B
:100D10000895FC0101900020E9F73197AF01481BCD
:100D2000590BBC018FEE91E00C94E6008F929F92DC
:100D3000AF92BF920F931F93CF93DF93CDB7DEB7E0
:100D4000A1970FB6F894DEBF0FBECDBF19A24230F7
:100D500008F44AE08E010F5D1F4F842E912CB12CB8
:100D6000A12CA50194010E94020FE62FB901CA012E
:100D7000EA30F4F4E05DD801EE938D01232B242BAF
:100D8000252B79F790E080E0109719F0CD010E94B3
:100D90008906A1960FB6F894DEBF0FBECDBFDF91D6
:100DA000CF911F910F91BF90AF909F908F9008951A
:100DB000E95CE1CF1F920F920FB60F9211242F938F
:100DC0003F934F935F936F937F938F939F93AF93D3
:100DD000BF93EF93FF938FEE91E00E946401FF9128
:100DE000EF91BF91AF919F918F917F916F915F91A3
:100DF0004F913F912F910F900FBE0F901F9018951C
:100E00001F920F920FB60F9211242F938F939F93DF
:100E1000EF93FF93E091FF01F09100028081E09158
:100E20000502F091060282FD1BC0908180910802AC
:100E30008F5F8F7320910902821741F0E0910802C1
:100E4000F0E0E151FE4F958F80930802FF91EF9102
:100E50009F918F912F910F900FBE0F901F9018951B
:100E60008081F4CF1F920F920FB60F9211242F930F
:100E70003F938F939F93AF93BF938091760190910F
:100E80007701A0917801B09179013091750123E04B
:100E9000230F2D3758F50196A11DB11D2093750123
:100EA0008093760190937701A0937801B0937901B4
:100EB00080917A0190917B01A0917C01B0917D019C
:100EC0000196A11DB11D80937A0190937B01A0939F
:100ED0007C01B0937D01BF91AF919F918F913F9124
:100EE0002F910F900FBE0F901F90189526E8230F9B
:100EF0000296A11DB11DD2CF1F920F920FB60F9275
:100F000011242F933F934F935F936F937F938F930E
:100F10009F93AF93BF93EF93FF938091B900887F26
:100F2000803609F44AC0F0F5883209F4A7C018F5F4
:100F3000803109F49BC0B8F4882309F4F9C08830E3
:100F400009F494C0FF91EF91BF91AF919F918F9160
:100F50007F916F915F914F913F912F910F900FBEB5
:100F60000F901F901895883109F488C0803251F78E
:100F70008093C80114C0803409F49DC040F48033CC
:100F8000B9F38833F9F68093C80185ECB0C0803599
:100F900009F485C0883509F496C0883499F60E9412
:100FA0007003D0CF883909F48CC038F5883729F020
:100FB00050F4883611F0803729F683E08093CA0117
:100FC0001092740157C0883809F47BC0803919F039
:100FD000803809F0B7CF80917401803208F071C079
:100FE000E091740181E08E0F809374018091BB00C9
:100FF000F0E0EC5AFE4F80833DC0803B39F0E0F4D6
:10100000803A09F479C0883A09F09CCF84E0809353
:10101000CA011092530110925201E0918001F091A7
:10102000810109958091520181110FC081E0809367
:1010300052011092320109C0803C09F4A6CF883CCD
:1010400009F4A3CF883B09F07DCFE091530181E003
:101050008E0F80935301F0E0EE5CFE4F8081809311
:10106000BB00909153018091520129C08091A5014C
:101070008093BB0085EC8093BC0064CF9091C70146
:101080008091C601981758F5E091C70181E08E0F55
:101090008093C701F0E0EA55FE4F8081E9CFE091EF
:1010A000C70181E08E0F8093C7018091BB00F0E003
:1010B000EA55FE4F80839091C7018091C601981731
:1010C000C8F285E8D8CFE091C70181E08E0F809308
:1010D000C7018091BB00F0E0EA55FE4F808380910C
:1010E000C90181115CCF81E08093A40184EA8093DF
:1010F000BC001092CA0126CF85EC8093BC001092F0
:10110000CA0180917401803230F4E0917401F0E002
:10111000EC5AFE4F10826091740170E0E0917E0104
:10112000F0917F0184E591E00995109274010ACF56
:101130001092C80134CFCF93DF931092F201109236
:10114000F10188EE93E0A0E0B0E08093F30190938A
:10115000F401A093F501B093F60125E031E030935E
:10116000F0012093EF0125EC30E03093FC01209357
:10117000FB0124EC30E03093FE012093FD0120ECD4
:1011800030E0309300022093FF0121EC30E03093F7
:1011900002022093010222EC30E0309304022093FB
:1011A000030226EC30E030930602209305021092F1
:1011B00008021092090210920A0210920B02109279
:1011C0008F0210928E028093900290939102A093CE
:1011D0009202B093930287E191E090938D02809305
:1011E0008C0289E28093AF021092B1021092B00299
:1011F0001092B20288E090E0909399028093980256
:1012000089E090E090939B0280939A028AE090E0BC
:1012100090939D0280939C028BE090E090939F02BC
:1012200080939E021092A1021092A00280E090E1B1
:101230009093A3028093A20284E893E09093A50286
:101240008093A4028FEF9FEF9093A7028093A60252
:101250001092AD021092AC02A8E9B2E020EA32E0AE
:101260008D919D919927FC01EC55FF4F449180573A
:101270009F4FFC018491882399F090E0880F991F7B
:10128000FC01EA57FF4FC591D491FC01E458FF4F90
:10129000859194918FB7F894E881E42BE8838FBF10
:1012A0002A173B07E9F6DF91CF910895CF93DF939B
:1012B000CDB7DEB7A2970FB6F894DEBF0FBECDBF95
:1012C000789484B5826084BD84B5816084BD85B521
:1012D000826085BD85B5816085BD80916E0081602D
:1012E00080936E00109281008091810082608093D3
:1012F00081008091810081608093810080918000D5
:101300008160809380008091B10084608093B100FF
:101310008091B00081608093B00080917A008460F9
:1013200080937A0080917A00826080937A00809125
:101330007A00816080937A0080917A00806880933F
:101340007A001092C100A091A202B091A30224E100
:1013500030E00E942A0F9B01AC0160E077E883E94E
:1013600093E00E94020F3093A5022093A402E09123
:10137000FF01F091000282E08083E091FB01F09197
:10138000FC011082E091FD01F091FE018FEC808361
:1013900010920702E0910302F091040286E080833C
:1013A000E0910102F0910202808180618083E091EE
:1013B0000102F0910202808188608083E091010245
:1013C000F0910202808180688083E0910102F091B7
:1013D000020280818F7D80831092830110928201AE
:1013E0001092CC011092EE011092CA0181E080931C
:1013F000C9011092A40161E082E10E94F30161E061
:1014000083E10E94F3018091B9008E7F8093B9003F
:101410008091B9008D7F8093B90088E48093B800F3
:1014200085E48093BC0084EE90E0909381018093EA
:10143000800185EE90E090937F0180937E0189E8A2
:101440000E94E704682F616089E80E94270460E039
:1014500088E80E94270461E080E80E94270461E098
:101460008FEF0E94270460E080E00E94270481E95A
:101470000E94E7048093B50261E080E00E942704A7
:1014800060E08FEF0E94270460E080E80E9427045C
:1014900080E60E94E704682F626180E60E942704CC
:1014A00060E270E084E40E9449046FEF81E00E94F2
:1014B000270461E080E80E94270461E08FEF0E942A
:1014C000270460E080E00E94270466E08FEF0E941E
:1014D000270483E80E94E704682F646083E80E9481
:1014E000270467E08FEF0E94270461E081E80E94F3
:1014F000270461E080E80E9427046BE684E90E94EB
:10150000270460E083E80E9427040E94640370932C
:10151000B4026093B30283E80E94E704811156C0CD
:101520008091B0029091B102892BA9F30E946403CB
:101530002091B3023091B402621B730B8091B00210
:101540009091B1028617970730F784EF91E090935E
:10155000B1028093B00261E080E80E94270461E05C
:101560008FEF0E94270460E080E00E9427046091D2
:10157000B50281E90E94270461E080E00E9427040F
:1015800060E08FEF0E94270460E080E80E9427045B
:1015900062E080E00E94270488E6482E5524539498
:1015A000612C712C90E0292E90E0392E27E0822EBC
:1015B000912CB1E0B09300018091A0029091A10222
:1015C000892B09F467C30E94DC02F6CF61E083E84F
:1015D0000E94270482E90E94E704F82EE894F7F8B5
:1015E000E82EEE1CEE24EE1C60E081E80E94270449
:1015F00066E08FEF0E94270483E80E94E704682FCB
:101600006B7F83E80E94270461E08FEF0E9427042C
:1016100061E080E00E94270460E08FEF0E942704D1
:1016200060E080E80E9427048091AF0291E09093EF
:10163000CB018093ED011092CC011092EE0160EB92
:101640008CE892E00E94F80381E00E94870080937A
:10165000AE0266E08091AF020E9476048E01095EC0
:101660001F4F580187E0D82EDA94DD2041F08CE836
:1016700092E00E94B103D5018D935D01F5CF61E049
:101680008FEF0E94270460E08FE40E9427046CE241
:101690008EE40E94270460E08FEF0E94270464EB31
:1016A00086EB0E942704EE2009F443C0BCE0EB2E39
:1016B00090E080E0E1E0F0E0482F469546954695C1
:1016C00050E09801240F351FD9012C91682F6770C5
:1016D0008E1510F0F9122FC0400F511FDF0102C00C
:1016E000AA0FBB1F6A95E2F7BD0160952623DA01B8
:1016F0002C938F5F803301F78091AF0291E090933C
:10170000CB018093ED011092CC011092EE0160EBC1
:101710008CE892E00E94F803A7E0FA2EFA94FF20EA
:10172000A1F0F80161918F018CE892E00E94F8032A
:10173000F5CFE12CBDCF30E002C0359527956A95F5
:10174000E2F720FFD6CF9F5FD4CF81E00E948700D1
:101750008093AE0261E08FEF0E94270460E080E09A
:101760000E94270460E08FEF0E94270460E089E078
:101770000E94270460E080E10E94270460E081E18C
:101780000E94270461E084E20E9427046FEF85E253
:101790000E94270460E085E70E94270461E08FEF44
:1017A0000E9427046CE28EE40E94270460E088E433
:1017B0000E94270460E280E30E94270460E08FEF2C
:1017C0000E94270469E080E30E94270460E084E52A
:1017D0000E94270464E081E30E94270463E082E31F
:1017E0000E94270463E880E40E94270465E286E4FF
:1017F0000E94270460E080E60E94270460E087E200
:101800000E94270466E080E50E94270460E081E5ED
:101810000E94270466E982E50E94270468E086E5C5
:101820000E94270460E387E50E94270460E081E6C8
:101830000E94270460E082E60E94270460E084E6BC
:101840000E94270460E085E60E94270460EA86E69D
:101850000E94270461E08FEF0E94270462E382E286
:101860000E94270464E187E40E9427046FEF89E463
:101870000E94270460E08AE40E94270460E08FEF62
:101880000E9427046AE08AE70E94270460E08BE751
:101890000E94270461E288E70E94270461E08FEF3D
:1018A0000E94270464E383E20E94270460E082E44C
:1018B0000E9427046FEF84E40E94270466E285E417
:1018C0000E94270465E086E40E94270460E480E427
:1018D0000E94270466E08EE00E9427046AE180E20D
:1018E0000E94270460E483E40E94270460E08FEFF5
:1018F0000E94270463E084E30E94270464E485E3F4
:101900000E94270461E08FEF0E94270464E081E3D6
:101910000E94270469E08BE40E94270465E08CE4C0
:101920000E94270464E08DE40E94270460E08FEFAA
:101930000E94270460E084E40E94270460E285E4BA
:101940000E94270468E087E40E94270468E288E494
:101950000E94270460E087E60E94270464E080E795
:101960000E94270461E081E70E9427046EEF82E76E
:101970000E94270460E086E70E94270460E087E772
:101980000E94270461E08FEF0E94270461E08DE050
:101990000E94270460E08FEF0E94270461E080E846
:1019A0000E94270468EF81E00E94270461E08FEF26
:1019B0000E94270461E08EE80E94270461E080E035
:1019C0000E94270460E08FEF0E94270460E080E817
:1019D0000E94270464E08AE00E94270484E80E94B1
:1019E000E704682F6F7E84E80E94270461E08BE0A3
:1019F0000E942704CE014D960E943A05BE016F5FFA
:101A00007F4FCE014D960E9457058D8D882309F496
:101A1000F5C08B859C85AD85BE858C57924FAF4FA9
:101A2000BF4F2F8D222309F4EEC04B855C856D8559
:101A30007E854E545D4F6F4F7F4F440F551F661F7D
:101A4000771F840F951FA61FB71F28A1222361F0BF
:101A50004F85588969897A894C565D4F6F4F7F4F02
:101A6000840F951FA61FB71F29A1222361F04B8960
:101A70005C896D897E894A5D5D4F6F4F7F4F840F12
:101A8000951FA61FB71F8093B6029093B702A0932D
:101A9000B802B093B90268EE81E00E942704C090BA
:101AA000B602D090B702E090B802F090B902F0E22E
:101AB000CF16FEE4DF06E104F10408F4D2C0CE0143
:101AC0004D960E943A05BE016F5F7F4FCE014D9645
:101AD0000E9457058D8D882309F4A2C08B859C85B3
:101AE000AD85BE858A5C944FAF4FBF4F2F8D2223AB
:101AF00009F49BC04B855C856D857E854E545D4F9A
:101B00006F4F7F4F440F551F661F771F840F951F20
:101B1000A61FB71F18A1112361F04F855889698945
:101B20007A894C565D4F6F4F7F4F840F951FA61FCC
:101B3000B71F29A1222309F494C02C013D0126E2FC
:101B4000420E22E0521E611C711CC414D504E6042E
:101B5000F70408F486C0AB81B0E020E03FE24AE33E
:101B600050E00E94310F4B015C01A4EF8A0EA1E00E
:101B70009A1EA11CB11CA70196012419350946091A
:101B80005709A8EEB3E00E94310F2B013C01C501BB
:101B9000B40120ED37E040E050E00E94020F420E19
:101BA000531E641E751EC501B40128EE33E040E0EB
:101BB00050E00E94020FC301B2010E94020FB9015E
:101BC000112321F06F817885620F731F61157105F4
:101BD000E9F161507109CB01B0E0A0E070E060E094
:101BE0008C019D010027012B022B032B59F1B69587
:101BF000A795979587956F5F7F4FF2CF86E39BE020
:101C0000A0E0B0E00ECF2E8D222309F41ECF4B852D
:101C10005C856D857E854C565D4F6F4F7F4F11CF34
:101C200088EE98E0A0E0B0E061CF2E8D222309F489
:101C300071CF4B855C856D857E854C565D4F6F4FB2
:101C40007F4F64CF762F6627682B792B81E70E9420
:101C50004904C092B602D092B702E092B802F09264
:101C6000B90261E081E00E94270480E40E94090536
:101C7000882309F46ACC62E081E00E94270480E0B6
:101C80000E940905882309F460CC68EE81E00E9477
:101C900027045BCC0E942F0310920001C12CD12C91
:101CA0007601E0910001EAA3A091A202B091A30203
:101CB0002AE030E00E942A0FA30192010E94020F45
:101CC000590110E000E00A151B05A4F5FAA1FF2355
:101CD00029F00E94DC020F5F1F4FF5CF8091A60212
:101CE0009091A702019797FD20C09093A70280933F
:101CF000A6028091A6029091A7020E943F028091C5
:101D0000A0029091A10201979093A1028093A0025A
:101D100097FFE1CF2091A2023091A302820F931F7F
:101D20009093A1028093A002D6CF9092A7028092B6
:101D3000A602DFCF4AE0C701B6010E9496066DE217
:101D40008FEE91E00E9486010E9464037093B402BA
:101D50006093B30283E10E94E704877009F049C0F1
:101D60008091B0029091B102892BA1F30E9464038B
:101D70002091B3023091B402621B730B8091B002C8
:101D80009091B1028617970728F721E02093B202BD
:101D90000FEF1FEFB80190E080E04AE00E94960646
:101DA0008091B2021092B202882321F085E291E084
:101DB0000E9489068EE291E00E9489060E942F030C
:101DC0008AE0C80ED11CE11CF11CA8E6CA16A1E0ED
:101DD000DA06E104F10409F064CF2114310409F4B6
:101DE000E8CB0E945001882309F4E3CB0E94000055
:101DF000E0CB8EE10E94BC048C0161E08BE00E948C
:101E00002704C8CFA1E21A2EAA1BBB1BFD010DC0DF
:101E1000AA1FBB1FEE1FFF1FA217B307E407F5079A
:101E200020F0A21BB30BE40BF50B661F771F881F76
:101E3000991F1A9469F760957095809590959B010C
:101E4000AC01BD01CF010895EE0FFF1F0590F49185
:101E5000E02D09940E94440FB7FF0895821B930B55
:101E600008950E94440FA59F900DB49F900DA49FCC
:101E7000800D911D11240895B7FF0C94310F0E941D
:101E8000310F821B930B0895A29FB001B39FC00135
:101E9000A39F700D811D1124911DB29F700D811D96
:0A1EA0001124911D0895F894FFCF5E
:101EAA0001000000008601E6001301D3014401226B
:101EBA0001360100000000F803CB037304A103C438
:101ECA0003B103A2032054494D454F5554000D0A4E
:021EDA00000006
:00000001FF
