:100000000C945D000C9485000C9485000C94850084
:100010000C9485000C9485000C9485000C9485004C
:100020000C9485000C9485000C9485000C9485003C
:100030000C9485000C9485000C9485000C9485002C
:100040000C9459070C9485000C9427070C94010715
:100050000C9485000C9485000C9485000C9485000C
:100060000C94A3070C948500000000080002010016
:100070000003040700000000000000000000000072
:10008000250028002B0000000000240027002A0083
:10009000040404040404040402020202020203032E
:1000A0000303030301020408102040800102040836
:1000B0001020010204081020C20811241FBECFEF37
:1000C000D8E0DEBFCDBF11E0A0E0B1E0E2E3FFE1A8
:1000D00002C005900D92A434B107D9F722E0A4E440
:1000E000B1E001C01D92AC3CB207E1F710E0CDE5F4
:1000F000D0E004C02197FE010E94540FCC35D107F7
:10010000C9F70E947D090C94970F0C940000982F5A
:100110002091000281E0213208F043C08091DC018F
:100120008111FCCF8091FF0132E03093DC0190938C
:10013000DB019FEF9093DA011092D9012093D8014F
:10014000AFEDB1E0E8EBF1E090E0291331C010929F
:10015000B7019091B701880F892B8093B7018091E7
:10016000B601813049F51092B6018091B7018093B4
:10017000BB008091BC0083FDF8CF85EC8093BC0070
:100180008091DC018230E1F38091DA018F3FB1F0A0
:100190008091DA018032A1F08091DA01803391F010
:1001A00084E01092DE01109200021092DD010895A9
:1001B0003D9131939F5FC9CF85EEE0CF80E0F1CFD5
:1001C00082E0EFCF83E0EDCF08950895AF92BF9224
:1001D000CF92DF92EF92FF920F931F93CF93DF9313
:1001E0006C017B018B01040F151FEB015E01AE1842
:1001F000BF08C017D10759F06991D601ED91FC9164
:100200000190F081E02DC6010995892B79F7C50190
:10021000DF91CF911F910F91FF90EF90DF90CF90E2
:10022000BF90AF900895FC01538D448D252F30E091
:10023000842F90E0821B930B541710F0CF960895F3
:1002400001970895FC01918D828D981761F0A28D20
:10025000AE0FBF2FB11D5D968C91928D9F5F9F73E6
:10026000928F90E008958FEF9FEF0895FC01918D9C
:10027000828D981731F0828DE80FF11D858D90E009
:1002800008958FEF9FEF0895FC01918D228D892FA6
:1002900090E0805C9F4F821B91098F73992708958E
:1002A00081E092E00E94440121E0892B09F420E0E2
:1002B000822F089580E090E0892B29F00E94500160
:1002C00081110C9400000895FC01A48DA80FB92F92
:1002D000B11DA35ABF4F2C91848D90E001968F736E
:1002E0009927848FA689B7892C93A089B1898C918D
:1002F000837080648C93938D848D981306C00288DC
:10030000F389E02D80818F7D80830895EF92FF92A5
:100310000F931F93CF93DF93EC0181E0888F9B8D28
:100320008C8D98131AC0E889F989808185FF15C0E2
:100330009FB7F894EE89FF896083E889F989808105
:100340008370806480839FBF81E090E0DF91CF91D4
:100350001F910F91FF90EF900895F62E0B8D10E0F6
:100360000F5F1F4F0F731127E02E8C8D8E110CC065
:100370000FB607FCFACFE889F989808185FFF5CFB0
:10038000CE010E946401F1CFEB8DEC0FFD2FF11D2A
:10039000E35AFF4FF0829FB7F8940B8FEA89FB89ED
:1003A00080818062CFCFCF93DF93EC01888D88234B
:1003B000B9F0AA89BB89E889F9898C9185FD03C0C8
:1003C000808186FD0DC00FB607FCF7CF8C9185FFAD
:1003D000F2CF808185FFEDCFCE010E946401E9CF8D
:1003E000DF91CF91089590E0FC01E859FF4F2491EF
:1003F000FC01EC55FF4F3491FC01E057FF4FE491B5
:10040000EE23C9F0222339F0233001F1A8F4213082
:1004100019F1223029F1F0E0EE0FFF1FE458FF4FF1
:10042000A591B4918FB7F894EC91611126C03095E5
:100430003E233C938FBF08952730A9F02830C9F0A0
:10044000243049F7809180008F7D03C08091800027
:100450008F7780938000DFCF84B58F7784BDDBCF2B
:1004600084B58F7DFBCF8091B0008F778093B000F3
:10047000D2CF8091B0008F7DF9CF3E2BDACFCF92D3
:10048000DF92EF92FF920F931F93CF93DF93CDB73D
:10049000DEB728970FB6F894DEBF0FBECDBF883009
:1004A000910508F086C0FC01E85AFD4F0C94540FEA
:1004B000600267027002750280028702C702D002E2
:1004C00081E090E09A8389831C821B8206C081E0D0
:1004D00090E09A8389839C838B831E821D820DC04A
:1004E0001A82198281E090E0F6CF1A82198281E0A7
:1004F00090E09C838B839E838D8318861F8211C01E
:100500001A8219821C821B8281E090E0F4CF1A8249
:1005100019821C821B8281E090E09E838D839887E4
:100520008F838E010F5F1F4F3AEAE32E32E0F32EE6
:100530006E0189E0C80ED11CF80160810E5F1F4F6B
:10054000F7018081F2E0EF0EF11C0E94F301C0166A
:10055000D10691F78091B6029091B7028230910551
:1005600038F0880F991F880F991F05970197F1F7A9
:1005700028960FB6F894DEBF0FBECDBFDF91CF91A6
:100580001F910F91FF90EF90DF90CF9008951A8206
:1005900019821C821B821E821D8281E090E0BFCFE7
:1005A00081E090E09A8389831C821B821E821D82D7
:1005B000B6CF1A82198288CF8091B8029091B90281
:1005C000019797FD20C09093B9028093B802809163
:1005D000B8029091B9020E943F028091B2029091BC
:1005E000B30201979093B3028093B20297FF0AC0BF
:1005F0002091B4023091B502820F931F9093B30201
:100600008093B202089587E090E0DDCF8091B80238
:100610009091B9020196883091050CF59093B9023A
:100620008093B8028091B8029091B9020E943F0273
:100630008091B2029091B30201969093B30280939D
:10064000B2022091B4023091B5028217930734F0C0
:10065000821B930B9093B3028093B2020895109281
:10066000B9021092B802DECF3FB7F89480918C01A6
:1006700090918D01A0918E01B0918F0126B5A89B1C
:1006800005C02F3F19F00196A11DB11D3FBFBA2F24
:10069000A92F982F8827BC01CD01620F711D811DE4
:1006A000911D42E0660F771F881F991F4A95D1F769
:1006B00008958F929F92AF92BF92CF92DF92EF9266
:1006C000FF924B015C010E9434036B017C010E948C
:1006D00034036C197D098E099F09683E73408105BA
:1006E0009105A8F321E0821A9108A108B10888EECB
:1006F000C80E83E0D81EE11CF11C81149104A104F2
:10070000B10429F7FF90EF90DF90CF90BF90AF90AA
:100710009F908F9008952FB7F89460918801709101
:10072000890180918A0190918B012FBF089585EDF9
:100730008093BC008091BC0084FDFCCF1092DC0152
:10074000089520916401260F3327331F213231058C
:10075000ECF42091DC01FC0190E080E0243069F0B1
:1007600082E00895A09164012191AC014C5B5E4F41
:10077000A40FB52FB11D2C930196861798F3809185
:100780006401680F6093640180E0089581E008953A
:100790000895E091950180919401E81730F4F0E01C
:1007A000EA56FE4F808190E008958FEF9FEF089505
:1007B00090919501809194012FEF3FEF981748F4A5
:1007C000E92FF0E0EA56FE4F208130E09F5F9093E2
:1007D0009501C90108958091940190919501891B1B
:1007E000990B0895CF92DF92EF92FF920F931F9390
:1007F000CF93DF937C01CB018A012091DD0122237D
:1008000089F0EB016B01C40ED51ECC15DD0569F036
:100810006991D701ED91FC910190F081E02DC70124
:100820000995F3CF642F0E94A103C801DF91CF91F6
:100830001F910F91FF90EF90DF90CF900895CF938D
:10084000DF931F92CDB7DEB769832091DD012223AC
:10085000F9F020910002203258F021E030E0FC0154
:100860003383228390E080E00F90DF91CF91089551
:100870008091DE01E82FF0E0E152FE4F99819083F4
:100880008F5F8093DE018093000281E090E0ECCFE7
:1008900061E0CE0101960E94A103F7CF1F93CF9391
:1008A000DF93162FC0ECD2E0998121E02093DD0187
:1008B0009093FF011092DE0110920002682F8EE9E2
:1008C00092E00E941F04612F8EE992E00E941F04B3
:1008D00081E00E9487008883DF91CF911F91089566
:1008E0000F931F93CF93DF93162F072FC0ECD2E007
:1008F000998121E02093DD019093FF011092DE01A8
:1009000010920002682F8EE992E00E941F04602F6F
:100910008EE992E00E941F04612F8EE992E00E940E
:100920001F0481E00E9487008883DF91CF911F918F
:100930000F91089590E080E00895FC01019000205F
:10094000E9F73197AF01481B590BBC0181E092E0F8
:100950000C94E6008F929F92AF92BF920F931F93D9
:10096000CF93DF93CDB7DEB7A1970FB6F894DEBF74
:100970000FBECDBF19A2423008F44AE08E010F5DD0
:100980001F4F842E912CB12CA12CA50194010E9403
:10099000320FE62FB901CA01EA30F4F4E05DD80164
:1009A000EE938D01232B242B252B79F790E080E00B
:1009B000109719F0CD010E949D04A1960FB6F894EE
:1009C000DEBF0FBECDBFDF91CF911F910F91BF90C2
:1009D000AF909F908F900895E95CE1CF9091DC01FA
:1009E0009111FCCF91E09093DC019093DB012FEF0C
:1009F0002093DA011092D901260F2093D801909309
:100A0000B7019091B701880F892B8093B70180912E
:100A1000B601813019F51092B6018091B70180932B
:100A2000BB008091BC0083FDF8CF85EC8093BC00B7
:100A30008091DC018130E1F38091D901861710F4B7
:100A40006091D901A8EBB1E0E6E9F1E080E086131E
:100A500007C01092950180939401089585EEE6CF2A
:100A60009D9191938F5FF3CFCF93DF93C0ECD2E052
:100A7000998121E02093DD019093FF011092DE0126
:100A800010920002682F8EE992E00E941F0481E01C
:100A90000E948700888362E089810E94EE048EE9CB
:100AA00092E00E94D803D82F80E0C82F8EE992E010
:100AB0000E94D8038C2B9D2BDF91CF910895CF936B
:100AC000DF93C0ECD2E0998121E02093DD01909387
:100AD000FF011092DE0110920002682F8EE992E071
:100AE0000E941F0481E00E948700888361E0898161
:100AF0000E94EE048EE992E00E94D803DF91CF912C
:100B00000895682F616080E00E944E040E948B036C
:100B10007093C6026093C50283E10E945F058770EF
:100B2000B9F48091C2029091C302892BA9F30E946B
:100B30008B032091C5023091C602621B730B80911A
:100B4000C2029091C3028617970730F780E008959C
:100B500061E08BE00E944E0460E080E00E944E0461
:100B600081E00895CF93DF93EC0181E00E945F055F
:100B700084FB992790F9988383FB992790F99A83AE
:100B800082FB992790F9998386FB992790F99B839B
:100B9000881F8827881F8C83DF91CF9108952F921B
:100BA0003F924F925F926F927F928F929F92AF92FD
:100BB000BF92CF92DF92EF92FF920F931F93CF934A
:100BC000DF9300D000D000D0CDB7DEB71C017E830C
:100BD0006D8380E50E945F058F5F880F90E0ED8157
:100BE000FE819183808386E40E945F05682E712CCC
:100BF000FFEF6F1A7F0AED81FE8175826482A0810A
:100C0000B0E020E03FE24AE350E00E94610F4B0178
:100C10005C01F4EF8F0EF1E09F1EA11CB11C98EE59
:100C2000C92E93E0D92EE12CF12CC501B401A70106
:100C300096010E94320FD3010E946C0F69837A8360
:100C40008B839C8320ED422E27E0522E612C712C49
:100C5000C501B401A30192010E94320F69817A811A
:100C60008B819C81620F731F841F951FA7019601C2
:100C70000E94320FED81FE8122873387448755879A
:100C800081E50E9434058C01112702C0000F111F5D
:100C90009A95E2F70F5F1F4FED81FE811783068360
:100CA000A081B0E020E03FE24AE350E00E94610F03
:100CB0004B015C01F4EF8F0EF1E09F1EA11CB11CF3
:100CC000C501B401A70196010E94320FD8010E940C
:100CD000610F69837A838B839C83C501B401A3016F
:100CE00092010E94320F69817A818B819C81620F0F
:100CF000731F841F951FA70196010E94320FED817B
:100D0000FE8126873787408B518B80E70E945F05E5
:100D10008F5F880F90E0ED81FE819383828381E76E
:100D20000E9434059C01992702C0880F991F3A95AB
:100D3000E2F70196ED81FE8191878087F1012381A1
:100D4000222341F0ED81FE8126813781821B930BA6
:100D500091878087ED81FE81A281B0E020E03FE2B3
:100D60004AE350E00E94610F6B017C01F4EFCF0E6B
:100D7000F1E0DF1EE11CF11C88EE482E83E0582EC6
:100D8000612C712CC701B601A30192010E94320FA0
:100D9000ED81FE81A085B1850E94610F4B015C0150
:100DA000C701B60120ED37E040E050E00E94320F6D
:100DB000C501B401620F731F841F951FA301920127
:100DC0000E94320FED81FE81228B338B448B558B39
:100DD00026960FB6F894DEBF0FBECDBFDF91CF9140
:100DE0001F910F91FF90EF90DF90CF90BF90AF9049
:100DF0009F908F907F906F905F904F903F902F903B
:100E000008951F920F920FB60F9211242F933F93C4
:100E10004F935F936F937F938F939F93AF93BF9302
:100E2000EF93FF9381E092E00E946401FF91EF91C4
:100E3000BF91AF919F918F917F916F915F914F91F2
:100E40003F912F910F900FBE0F901F9018951F92FA
:100E50000F920FB60F9211242F938F939F93EF93BE
:100E6000FF93E0911102F09112028081E09117024C
:100E7000F091180282FD1BC0908180911A028F5F51
:100E80008F7320911B02821741F0E0911A02F0E06B
:100E9000EF5FFD4F958F80931A02FF91EF919F9125
:100EA0008F912F910F900FBE0F901F9018958081FA
:100EB000F4CF1F920F920FB60F9211242F933F93EE
:100EC0008F939F93AF93BF938091880190918901F5
:100ED000A0918A01B0918B013091870123E0230F0B
:100EE0002D3758F50196A11DB11D209387018093E0
:100EF000880190938901A0938A01B0938B0180911E
:100F00008C0190918D01A0918E01B0918F0101967D
:100F1000A11DB11D80938C0190938D01A0938E0132
:100F2000B0938F01BF91AF919F918F913F912F917E
:100F30000F900FBE0F901F90189526E8230F029672
:100F4000A11DB11DD2CF1F920F920FB60F92112487
:100F50002F933F934F935F936F937F938F939F93C1
:100F6000AF93BF93EF93FF938091B900887F803652
:100F700009F44AC0F0F5883209F4A7C018F58031A9
:100F800009F49BC0B8F4882309F4F9C0883009F447
:100F900094C0FF91EF91BF91AF919F918F917F91FD
:100FA0006F915F914F913F912F910F900FBE0F90D6
:100FB0001F901895883109F488C0803251F78093CA
:100FC000DA0114C0803409F49DC040F48033B9F3D1
:100FD0008833F9F68093DA0185ECB0C0803509F4E6
:100FE00085C0883509F496C0883499F60E94970325
:100FF000D0CF883909F48CC038F5883729F050F4FF
:10100000883611F0803729F683E08093DC01109256
:10101000860157C0883809F47BC0803919F08038C0
:1010200009F0B7CF80918601803208F071C0E0915D
:10103000860181E08E0F809386018091BB00F0E0F5
:10104000EA59FE4F80833DC0803B39F0E0F4803A9E
:1010500009F479C0883A09F09CCF84E08093DC01E0
:101060001092650110926401E0919201F091930158
:1010700009958091640181110FC081E08093640122
:101080001092440109C0803C09F4A6CF883C09F4C1
:10109000A3CF883B09F07DCFE091650181E08E0F01
:1010A00080936501F0E0EC5BFE4F80818093BB0094
:1010B000909165018091640129C08091B70180936E
:1010C000BB0085EC8093BC0064CF9091D9018091E6
:1010D000D801981758F5E091D90181E08E0F8093DF
:1010E000D901F0E0E854FE4F8081E9CFE091D901C9
:1010F00081E08E0F8093D9018091BB00F0E0E8542D
:10110000FE4F80839091D9018091D8019817C8F241
:1011100085E8D8CFE091D90181E08E0F8093D90185
:101120008091BB00F0E0E854FE4F80838091DB01AA
:1011300081115CCF81E08093B60184EA8093BC008A
:101140001092DC0126CF85EC8093BC001092DC016C
:1011500080918601803230F4E0918601F0E0EA5916
:10116000FE4F10826091860170E0E0919001F09155
:10117000910186E691E00995109286010ACF1092BE
:10118000DA0134CFCF93DF9310920402109203025E
:1011900088EE93E0A0E0B0E0809305029093060211
:1011A000A0930702B093080225E031E030930202D9
:1011B0002093010225EC30E030930E0220930D02C3
:1011C00024EC30E03093100220930F0220EC30E04A
:1011D000309312022093110221EC30E0309314027C
:1011E0002093130222EC30E0309316022093150274
:1011F00026EC30E0309318022093170210921A0266
:1012000010921B0210921C0210921D021092A10259
:101210001092A0028093A2029093A302A093A40232
:10122000B093A50287E191E090939F0280939E0284
:1012300089E28093C1021092C3021092C2021092FE
:10124000C40288E090E09093AB028093AA0289E008
:1012500090E09093AD028093AC028AE090E090938E
:10126000AF028093AE028BE090E09093B102809346
:10127000B0021092B3021092B20280E090E190931B
:10128000B5028093B40284E893E09093B702809310
:10129000B6028FEF9FEF9093B9028093B80210923D
:1012A000BF021092BE02AAEAB2E022EB32E08D91B8
:1012B0009D919927FC01EC55FF4F449180579F4F1A
:1012C000FC018491882399F090E0880F991FFC011C
:1012D000EA57FF4FC591D491FC01E458FF4F859127
:1012E00094918FB7F894E881E42BE8838FBF2A1795
:1012F0003B07E9F6DF91CF910895CF93DF93CDB708
:10130000DEB7A1970FB6F894DEBF0FBECDBF7894BD
:1013100084B5826084BD84B5816084BD85B58260FA
:1013200085BD85B5816085BD80916E0081608093AB
:101330006E00109281008091810082608093810014
:101340008091810081608093810080918000816024
:10135000809380008091B10084608093B10080917F
:10136000B00081608093B00080917A0084608093A7
:101370007A0080917A00826080937A0080917A006E
:10138000816080937A0080917A00806880937A00EF
:101390001092C100A091B402B091B50224E130E0F6
:1013A0000E945A0F9B01AC0160E077E883E993E06B
:1013B0000E94320F3093B7022093B602E0911102DF
:1013C000F091120282E08083E0910D02F0910E0212
:1013D0001082E0910F02F09110028FEC8083109246
:1013E0001902E0911502F091160286E08083E091E7
:1013F0001302F0911402808180618083E0911302D6
:10140000F0911402808188608083E0911302F09152
:101410001402808180688083E0911302F0911402AD
:1014200080818F7D8083109295011092940110929B
:10143000DE01109200021092DC0181E08093DB015A
:101440001092B60161E082E10E94F30161E083E164
:101450000E94F3018091B9008E7F8093B900809142
:10146000B9008D7F8093B90088E48093B80085E44B
:101470008093BC0084EE90E090939301809392015E
:1014800085EE90E0909391018093900189E80E940D
:101490005F05682F616089E80E944E0460E088E87B
:1014A0000E944E0461E080E80E944E0461E08FEFEC
:1014B0000E944E0460E080E00E944E0481E90E9498
:1014C0005F058093C70261E080E00E944E0460E007
:1014D0008FEF0E944E0460E080E80E944E0480E698
:1014E0000E945F05682F626180E60E944E0460E200
:1014F00070E084E40E9470046FEF81E00E944E046B
:1015000061E080E80E944E0461E08FEF0E944E048B
:1015100060E080E00E944E0466E08FEF0E944E047F
:1015200083E80E945F05682F646083E80E944E0490
:1015300067E08FEF0E944E0461E081E80E944E0454
:1015400061E080E80E944E046BE684E90E944E044C
:1015500060E083E80E944E040E948B037093C602F1
:101560006093C50283E80E945F05811173C080917A
:10157000C2029091C302892BA9F30E948B03209190
:10158000C5023091C602621B730B8091C20290911A
:10159000C3028617970730F784EF91E09093C30258
:1015A0008093C20261E080E80E944E0461E08FEF08
:1015B0000E944E0460E080E00E944E046091C702E9
:1015C00081E90E944E0461E080E00E944E0460E0E8
:1015D0008FEF0E944E0460E080E80E944E0462E0BB
:1015E00080E00E944E0485E291E00E949D0484E325
:1015F00091E00E949D0498E6892E99249394A12C51
:10160000B12C23E0422E512C30E0632E30E0732EBB
:101610001092000101E010E0309000016091B402EE
:101620007091B502072E000C880B990BA50194014F
:101630000E94320F6901F12CE12CEC14FD040CF036
:1016400070C3332009F46AC30E940603BFEFEB1A8C
:10165000FB0AF3CF61E083E80E944E0482E90E9416
:101660005F05F82EE894F7F8E82EEE1CEE24EE1C49
:1016700060E081E80E944E0466E08FEF0E944E0415
:1016800083E80E945F05682F6B7F83E80E944E0409
:1016900061E08FEF0E944E0461E080E00E944E0402
:1016A00060E08FEF0E944E0460E080E80E944E04EC
:1016B0008091C10291E09093DD018093FF0110922F
:1016C000DE011092000260EB8EE992E00E941F049E
:1016D00081E00E9487008093C00266E08091C10291
:1016E0000E94EE048E01095E1F4F580187E0D82E3C
:1016F000DA94DD2041F08EE992E00E94D803D50112
:101700008D935D01F5CF61E08FEF0E944E0460E0A4
:101710008FE40E944E046CE28EE40E944E0460E06E
:101720008FEF0E944E0464EB86EB0E944E04EE2085
:1017300009F443C0BCE0EB2E90E080E0E1E0F0E093
:10174000482F46954695469550E09801240F351F41
:10175000D9012C91682F67708E1510F0F9122FC0E7
:10176000400F511FDF0102C0AA0FBB1F6A95E2F7AD
:10177000BD0160952623DA012C938F5F803301F73A
:101780008091C10291E09093DD018093FF0110925E
:10179000DE011092000260EB8EE992E00E941F04CD
:1017A000A7E0FA2EFA94FF20A1F0F80161918F01D1
:1017B0008EE992E00E941F04F5CFE12CBDCF30E00E
:1017C00002C0359527956A95E2F720FFD6CF9F5F37
:1017D000D4CF81E00E9487008093C00261E08FEF48
:1017E0000E944E0460E080E00E944E0460E08FEFB3
:1017F0000E944E0460E089E00E944E0460E080E1B7
:101800000E944E0460E081E10E944E0461E084E2A7
:101810000E944E046FEF85E20E944E0460E085E76F
:101820000E944E0461E08FEF0E944E046CE28EE451
:101830000E944E0460E088E40E944E0460E280E36F
:101840000E944E0460E08FEF0E944E0469E080E346
:101850000E944E0460E084E50E944E0464E081E34F
:101860000E944E0463E082E30E944E0463E880E439
:101870000E944E0465E286E40E944E0460E080E629
:101880000E944E0460E087E20E944E0466E080E51C
:101890000E944E0460E081E50E944E0466E982E504
:1018A0000E944E0468E086E50E944E0460E387E5EE
:1018B0000E944E0460E081E60E944E0460E082E6F1
:1018C0000E944E0460E084E60E944E0460E085E6DB
:1018D0000E944E0460EA86E60E944E0461E08FEFAB
:1018E0000E944E0462E382E20E944E0464E187E4B7
:1018F0000E944E046FEF89E40E944E0460E08AE487
:101900000E944E0460E08FEF0E944E046AE08AE776
:101910000E944E0460E08BE70E944E0461E288E77B
:101920000E944E0461E08FEF0E944E0464E383E264
:101930000E944E0460E082E40E944E046FEF84E453
:101940000E944E0466E285E40E944E0465E086E44F
:101950000E944E0460E480E40E944E0466E08EE043
:101960000E944E046AE180E20E944E0460E483E437
:101970000E944E0460E08FEF0E944E0463E084E317
:101980000E944E0464E485E30E944E0461E08FEF00
:101990000E944E0464E081E30E944E0469E08BE4FF
:1019A0000E944E0465E08CE40E944E0464E08DE4E5
:1019B0000E944E0460E08FEF0E944E0460E084E4D9
:1019C0000E944E0460E285E40E944E0468E087E4D1
:1019D0000E944E0468E288E40E944E0460E087E6BC
:1019E0000E944E0464E080E70E944E0461E081E7BB
:1019F0000E944E046EEF82E70E944E0460E086E78C
:101A00000E944E0460E087E70E944E0461E08FEF81
:101A10000E944E0461E08DE00E944E0460E08FEF72
:101A20000E944E0461E080E80E944E0468EF81E06D
:101A30000E944E0461E08FEF0E944E0461E08EE848
:101A40000E944E0461E080E00E944E0460E08FEF4F
:101A50000E944E0460E080E80E944E0464E08AE048
:101A60000E944E0484E80E945F05682F6F7E84E820
:101A70000E944E0461E08BE00E944E04CE014D9620
:101A80000E94B205BE016F5F7F4FCE014D960E944E
:101A9000CF058D8D882309F4F5C08B859C85AD8598
:101AA000BE858C57924FAF4FBF4F2F8D222309F425
:101AB000EEC04B855C856D857E854E545D4F6F4FC6
:101AC0007F4F440F551F661F771F840F951FA61F5A
:101AD000B71F28A1222361F04F85588969897A8927
:101AE0004C565D4F6F4F7F4F840F951FA61FB71F3A
:101AF00029A1222361F04B895C896D897E894A5D29
:101B00005D4F6F4F7F4F840F951FA61FB71F8093A8
:101B1000C8029093C902A093CA02B093CB0268EEA8
:101B200081E00E944E04C090C802D090C902E090AB
:101B3000CA02F090CB02F0E2CF16FEE4DF06E10429
:101B4000F10408F4D2C0CE014D960E94B205BE0148
:101B50006F5F7F4FCE014D960E94CF058D8D8823FC
:101B600009F4A2C08B859C85AD85BE858A5C944FA7
:101B7000AF4FBF4F2F8D222309F49BC04B855C854F
:101B80006D857E854E545D4F6F4F7F4F440F551FBF
:101B9000661F771F840F951FA61FB71F18A111235B
:101BA00061F04F85588969897A894C565D4F6F4F2E
:101BB0007F4F840F951FA61FB71F29A1222309F469
:101BC00094C02C013D0126E2420E22E0521E611C0F
:101BD000711CC414D504E604F70408F486C0AB8174
:101BE000B0E020E03FE24AE350E00E94610F4B0189
:101BF0005C01A4EF8A0EA1E09A1EA11CB11CA701F2
:101C000096012419350946095709A8EEB3E00E9448
:101C1000610F2B013C01C501B40120ED37E040E02C
:101C200050E00E94320F420E531E641E751EC50105
:101C3000B40128EE33E040E050E00E94320FC301CF
:101C4000B2010E94320FB901112321F06F81788512
:101C5000620F731F61157105E9F161507109CB01C4
:101C6000B0E0A0E070E060E08C019D010027012B56
:101C7000022B032B59F1B695A795979587956F5F22
:101C80007F4FF2CF86E39BE0A0E0B0E00ECF2E8D39
:101C9000222309F41ECF4B855C856D857E854C56CD
:101CA0005D4F6F4F7F4F11CF88EE98E0A0E0B0E01E
:101CB00061CF2E8D222309F471CF4B855C856D8514
:101CC0007E854C565D4F6F4F7F4F64CF762F6627D2
:101CD000682B792B81E70E947004C092C802D092D1
:101CE000C902E092CA02F092CB0261E081E00E9458
:101CF0004E0480E40E948105882309F44DCC62E003
:101D000081E00E944E0480E00E948105882309F44E
:101D100043CC68EE81E00E944E043ECC0E94DC027F
:101D200095CC87E391E00E949D04C801B2010E9416
:101D30001E0F072E000C880B990B4AE00E94AA0484
:101D40006DE281E092E00E9486010E948B03709315
:101D5000C6026093C50283E10E945F05877009F0A7
:101D60004FC08091C2029091C302892BA1F30E94BF
:101D70008B032091C5023091C602621B730B8091C8
:101D8000C2029091C3028617970728F781E08093DB
:101D9000C402EE24EA94FE2CB70190E080E04AE011
:101DA0000E94AA0484E391E00E949D046AE070E02E
:101DB00080E090E00E9459030F5F1F4F0833E4E07A
:101DC0001E0709F029CC81E08093000107E314E0AD
:101DD0006091B4027091B502072E000C880B990B2C
:101DE000A50194010E94320F7901D12CC12CCE148F
:101DF000DF047CF40E940603FFEFCF1ADF0AF7CF5F
:101E00008EE10E9434057C0161E08BE00E944E046B
:101E1000C3CF61E070E080E090E00E945903015080
:101E20001109B1F66114710409F4F2CB0E9450015A
:101E3000882309F4EDCB0E940000EACB97FB072E24
:101E400016F4009407D077FD09D00E94740F07FCA8
:101E500005D03EF4909581959F4F089570956195BA
:101E60007F4F0895A1E21A2EAA1BBB1BFD010DC0D6
:101E7000AA1FBB1FEE1FFF1FA217B307E407F5073A
:101E800020F0A21BB30BE40BF50B661F771F881F16
:101E9000991F1A9469F760957095809590959B01AC
:101EA000AC01BD01CF010895EE0FFF1F0590F49125
:101EB000E02D09940E94880FB7FF0895821B930BB1
:101EC00008950E94880FA59F900DB49F900DA49F28
:101ED000800D911D11240895B7FF0C94610F0E948D
:101EE000610F821B930B0895AA1BBB1B51E107C016
:101EF000AA1FBB1FA617B70710F0A61BB70B881F9A
:101F0000991F5A95A9F780959095BC01CD01089528
:101F1000A29FB001B39FC001A39F700D811D11242A
:101F2000911DB29F700D811D1124911D0895F8948B
:021F3000FFCFE1
:101F320001000000008601E6001301D301440122E2
:101F4200013601000000001F04F2039A04C803EBEB
:101F520003D803C903414E4E4F554E4345204C69A9
:101F6200646172000D0A0073656E736F725F646163
:041F72007461200076
:00000001FF
